{
  "_format": "hh-sol-artifact-1",
  "contractName": "RandomIpfsNft",
  "sourceName": "contracts/RandomIpfsNft.sol",
  "abi": [
    {
      "inputs": [
        {
          "internalType": "address",
          "name": "vrfCoodrindatorV2",
          "type": "address"
        },
        {
          "internalType": "bytes32",
          "name": "keyhash",
          "type": "bytes32"
        },
        {
          "internalType": "uint64",
          "name": "subscriptionId",
          "type": "uint64"
        },
        {
          "internalType": "uint32",
          "name": "callbackGasLimit",
          "type": "uint32"
        },
        {
          "internalType": "string[3]",
          "name": "dogTokenUris",
          "type": "string[3]"
        },
        {
          "internalType": "uint256",
          "name": "mintFee",
          "type": "uint256"
        }
      ],
      "stateMutability": "nonpayable",
      "type": "constructor"
    },
    {
      "inputs": [
        {
          "internalType": "address",
          "name": "have",
          "type": "address"
        },
        {
          "internalType": "address",
          "name": "want",
          "type": "address"
        }
      ],
      "name": "OnlyCoordinatorCanFulfill",
      "type": "error"
    },
    {
      "inputs": [],
      "name": "RandomIpfsNft__ContractBalanceTransferFailed",
      "type": "error"
    },
    {
      "inputs": [],
      "name": "RandomIpfsNft__NotEnoughETHToCoverMintFee",
      "type": "error"
    },
    {
      "inputs": [],
      "name": "RandomIpfsNft__RangeOutOfBounds",
      "type": "error"
    },
    {
      "anonymous": false,
      "inputs": [
        {
          "indexed": true,
          "internalType": "address",
          "name": "owner",
          "type": "address"
        },
        {
          "indexed": true,
          "internalType": "address",
          "name": "approved",
          "type": "address"
        },
        {
          "indexed": true,
          "internalType": "uint256",
          "name": "tokenId",
          "type": "uint256"
        }
      ],
      "name": "Approval",
      "type": "event"
    },
    {
      "anonymous": false,
      "inputs": [
        {
          "indexed": true,
          "internalType": "address",
          "name": "owner",
          "type": "address"
        },
        {
          "indexed": true,
          "internalType": "address",
          "name": "operator",
          "type": "address"
        },
        {
          "indexed": false,
          "internalType": "bool",
          "name": "approved",
          "type": "bool"
        }
      ],
      "name": "ApprovalForAll",
      "type": "event"
    },
    {
      "anonymous": false,
      "inputs": [
        {
          "indexed": false,
          "internalType": "enum RandomIpfsNft.Breed",
          "name": "dogBreed",
          "type": "uint8"
        },
        {
          "indexed": false,
          "internalType": "address",
          "name": "minter",
          "type": "address"
        }
      ],
      "name": "NftMinted",
      "type": "event"
    },
    {
      "anonymous": false,
      "inputs": [
        {
          "indexed": true,
          "internalType": "uint256",
          "name": "requestId",
          "type": "uint256"
        },
        {
          "indexed": false,
          "internalType": "address",
          "name": "requester",
          "type": "address"
        }
      ],
      "name": "NftRequested",
      "type": "event"
    },
    {
      "anonymous": false,
      "inputs": [
        {
          "indexed": true,
          "internalType": "address",
          "name": "previousOwner",
          "type": "address"
        },
        {
          "indexed": true,
          "internalType": "address",
          "name": "newOwner",
          "type": "address"
        }
      ],
      "name": "OwnershipTransferred",
      "type": "event"
    },
    {
      "anonymous": false,
      "inputs": [
        {
          "indexed": true,
          "internalType": "address",
          "name": "from",
          "type": "address"
        },
        {
          "indexed": true,
          "internalType": "address",
          "name": "to",
          "type": "address"
        },
        {
          "indexed": true,
          "internalType": "uint256",
          "name": "tokenId",
          "type": "uint256"
        }
      ],
      "name": "Transfer",
      "type": "event"
    },
    {
      "inputs": [
        {
          "internalType": "address",
          "name": "to",
          "type": "address"
        },
        {
          "internalType": "uint256",
          "name": "tokenId",
          "type": "uint256"
        }
      ],
      "name": "approve",
      "outputs": [],
      "stateMutability": "nonpayable",
      "type": "function"
    },
    {
      "inputs": [
        {
          "internalType": "address",
          "name": "owner",
          "type": "address"
        }
      ],
      "name": "balanceOf",
      "outputs": [
        {
          "internalType": "uint256",
          "name": "",
          "type": "uint256"
        }
      ],
      "stateMutability": "view",
      "type": "function"
    },
    {
      "inputs": [
        {
          "internalType": "uint256",
          "name": "tokenId",
          "type": "uint256"
        }
      ],
      "name": "getApproved",
      "outputs": [
        {
          "internalType": "address",
          "name": "",
          "type": "address"
        }
      ],
      "stateMutability": "view",
      "type": "function"
    },
    {
      "inputs": [
        {
          "internalType": "uint256",
          "name": "moddedRng",
          "type": "uint256"
        }
      ],
      "name": "getBreedFromModdedRng",
      "outputs": [
        {
          "internalType": "enum RandomIpfsNft.Breed",
          "name": "",
          "type": "uint8"
        }
      ],
      "stateMutability": "pure",
      "type": "function"
    },
    {
      "inputs": [],
      "name": "getChanceArray",
      "outputs": [
        {
          "internalType": "uint256[3]",
          "name": "",
          "type": "uint256[3]"
        }
      ],
      "stateMutability": "pure",
      "type": "function"
    },
    {
      "inputs": [
        {
          "internalType": "uint256",
          "name": "index",
          "type": "uint256"
        }
      ],
      "name": "getDogTokenUris",
      "outputs": [
        {
          "internalType": "string",
          "name": "",
          "type": "string"
        }
      ],
      "stateMutability": "view",
      "type": "function"
    },
    {
      "inputs": [],
      "name": "getMintFee",
      "outputs": [
        {
          "internalType": "uint256",
          "name": "",
          "type": "uint256"
        }
      ],
      "stateMutability": "view",
      "type": "function"
    },
    {
      "inputs": [],
      "name": "getTokenCounter",
      "outputs": [
        {
          "internalType": "uint256",
          "name": "",
          "type": "uint256"
        }
      ],
      "stateMutability": "view",
      "type": "function"
    },
    {
      "inputs": [
        {
          "internalType": "address",
          "name": "owner",
          "type": "address"
        },
        {
          "internalType": "address",
          "name": "operator",
          "type": "address"
        }
      ],
      "name": "isApprovedForAll",
      "outputs": [
        {
          "internalType": "bool",
          "name": "",
          "type": "bool"
        }
      ],
      "stateMutability": "view",
      "type": "function"
    },
    {
      "inputs": [],
      "name": "name",
      "outputs": [
        {
          "internalType": "string",
          "name": "",
          "type": "string"
        }
      ],
      "stateMutability": "view",
      "type": "function"
    },
    {
      "inputs": [],
      "name": "owner",
      "outputs": [
        {
          "internalType": "address",
          "name": "",
          "type": "address"
        }
      ],
      "stateMutability": "view",
      "type": "function"
    },
    {
      "inputs": [
        {
          "internalType": "uint256",
          "name": "tokenId",
          "type": "uint256"
        }
      ],
      "name": "ownerOf",
      "outputs": [
        {
          "internalType": "address",
          "name": "",
          "type": "address"
        }
      ],
      "stateMutability": "view",
      "type": "function"
    },
    {
      "inputs": [
        {
          "internalType": "uint256",
          "name": "requestId",
          "type": "uint256"
        },
        {
          "internalType": "uint256[]",
          "name": "randomWords",
          "type": "uint256[]"
        }
      ],
      "name": "rawFulfillRandomWords",
      "outputs": [],
      "stateMutability": "nonpayable",
      "type": "function"
    },
    {
      "inputs": [],
      "name": "renounceOwnership",
      "outputs": [],
      "stateMutability": "nonpayable",
      "type": "function"
    },
    {
      "inputs": [],
      "name": "requestNft",
      "outputs": [
        {
          "internalType": "uint256",
          "name": "requestId",
          "type": "uint256"
        }
      ],
      "stateMutability": "payable",
      "type": "function"
    },
    {
      "inputs": [
        {
          "internalType": "uint256",
          "name": "",
          "type": "uint256"
        }
      ],
      "name": "s_requestIdToSender",
      "outputs": [
        {
          "internalType": "address",
          "name": "",
          "type": "address"
        }
      ],
      "stateMutability": "view",
      "type": "function"
    },
    {
      "inputs": [
        {
          "internalType": "address",
          "name": "from",
          "type": "address"
        },
        {
          "internalType": "address",
          "name": "to",
          "type": "address"
        },
        {
          "internalType": "uint256",
          "name": "tokenId",
          "type": "uint256"
        }
      ],
      "name": "safeTransferFrom",
      "outputs": [],
      "stateMutability": "nonpayable",
      "type": "function"
    },
    {
      "inputs": [
        {
          "internalType": "address",
          "name": "from",
          "type": "address"
        },
        {
          "internalType": "address",
          "name": "to",
          "type": "address"
        },
        {
          "internalType": "uint256",
          "name": "tokenId",
          "type": "uint256"
        },
        {
          "internalType": "bytes",
          "name": "data",
          "type": "bytes"
        }
      ],
      "name": "safeTransferFrom",
      "outputs": [],
      "stateMutability": "nonpayable",
      "type": "function"
    },
    {
      "inputs": [
        {
          "internalType": "address",
          "name": "operator",
          "type": "address"
        },
        {
          "internalType": "bool",
          "name": "approved",
          "type": "bool"
        }
      ],
      "name": "setApprovalForAll",
      "outputs": [],
      "stateMutability": "nonpayable",
      "type": "function"
    },
    {
      "inputs": [
        {
          "internalType": "bytes4",
          "name": "interfaceId",
          "type": "bytes4"
        }
      ],
      "name": "supportsInterface",
      "outputs": [
        {
          "internalType": "bool",
          "name": "",
          "type": "bool"
        }
      ],
      "stateMutability": "view",
      "type": "function"
    },
    {
      "inputs": [],
      "name": "symbol",
      "outputs": [
        {
          "internalType": "string",
          "name": "",
          "type": "string"
        }
      ],
      "stateMutability": "view",
      "type": "function"
    },
    {
      "inputs": [
        {
          "internalType": "uint256",
          "name": "tokenId",
          "type": "uint256"
        }
      ],
      "name": "tokenURI",
      "outputs": [
        {
          "internalType": "string",
          "name": "",
          "type": "string"
        }
      ],
      "stateMutability": "view",
      "type": "function"
    },
    {
      "inputs": [
        {
          "internalType": "address",
          "name": "from",
          "type": "address"
        },
        {
          "internalType": "address",
          "name": "to",
          "type": "address"
        },
        {
          "internalType": "uint256",
          "name": "tokenId",
          "type": "uint256"
        }
      ],
      "name": "transferFrom",
      "outputs": [],
      "stateMutability": "nonpayable",
      "type": "function"
    },
    {
      "inputs": [
        {
          "internalType": "address",
          "name": "newOwner",
          "type": "address"
        }
      ],
      "name": "transferOwnership",
      "outputs": [],
      "stateMutability": "nonpayable",
      "type": "function"
    },
    {
      "inputs": [],
      "name": "withdraw",
      "outputs": [],
      "stateMutability": "nonpayable",
      "type": "function"
    }
  ],
  "bytecode": "0x6101206040523480156200001257600080fd5b50604051620044e8380380620044e8833981810160405281019062000038919062000805565b856040518060400160405280600f81526020017f52616e646f6d2049504653204e465400000000000000000000000000000000008152506040518060400160405280600381526020017f52494e00000000000000000000000000000000000000000000000000000000008152508160009080519060200190620000bd92919062000298565b508060019080519060200190620000d692919062000298565b5050508073ffffffffffffffffffffffffffffffffffffffff1660808173ffffffffffffffffffffffffffffffffffffffff1681525050506200012e62000122620001ca60201b60201c565b620001d260201b60201c565b8573ffffffffffffffffffffffffffffffffffffffff1660a08173ffffffffffffffffffffffffffffffffffffffff16815250508460c081815250508367ffffffffffffffff1660e08167ffffffffffffffff16815250508263ffffffff166101008163ffffffff168152505080600b8190555081600a906003620001b592919062000329565b50600060098190555050505050505062000925565b600033905090565b6000600760009054906101000a900473ffffffffffffffffffffffffffffffffffffffff16905081600760006101000a81548173ffffffffffffffffffffffffffffffffffffffff021916908373ffffffffffffffffffffffffffffffffffffffff1602179055508173ffffffffffffffffffffffffffffffffffffffff168173ffffffffffffffffffffffffffffffffffffffff167f8be0079c531659141344cd1fd0a4f28419497f9722a3daafe3b4186f6b6457e060405160405180910390a35050565b828054620002a690620008ef565b90600052602060002090601f016020900481019282620002ca576000855562000316565b82601f10620002e557805160ff191683800117855562000316565b8280016001018555821562000316579182015b8281111562000315578251825591602001919060010190620002f8565b5b50905062000325919062000390565b5090565b8280548282559060005260206000209081019282156200037d579160200282015b828111156200037c5782518290805190602001906200036b92919062000298565b50916020019190600101906200034a565b5b5090506200038c9190620003af565b5090565b5b80821115620003ab57600081600090555060010162000391565b5090565b5b80821115620003d35760008181620003c99190620003d7565b50600101620003b0565b5090565b508054620003e590620008ef565b6000825580601f10620003f957506200041a565b601f01602090049060005260206000209081019062000419919062000390565b5b50565b6000604051905090565b600080fd5b600080fd5b600073ffffffffffffffffffffffffffffffffffffffff82169050919050565b60006200045e8262000431565b9050919050565b620004708162000451565b81146200047c57600080fd5b50565b600081519050620004908162000465565b92915050565b6000819050919050565b620004ab8162000496565b8114620004b757600080fd5b50565b600081519050620004cb81620004a0565b92915050565b600067ffffffffffffffff82169050919050565b620004f081620004d1565b8114620004fc57600080fd5b50565b6000815190506200051081620004e5565b92915050565b600063ffffffff82169050919050565b620005318162000516565b81146200053d57600080fd5b50565b600081519050620005518162000526565b92915050565b600080fd5b6000601f19601f8301169050919050565b7f4e487b7100000000000000000000000000000000000000000000000000000000600052604160045260246000fd5b620005a7826200055c565b810181811067ffffffffffffffff82111715620005c957620005c86200056d565b5b80604052505050565b6000620005de6200041d565b9050620005ec82826200059c565b919050565b600067ffffffffffffffff8211156200060f576200060e6200056d565b5b602082029050919050565b600080fd5b600080fd5b600067ffffffffffffffff8211156200064257620006416200056d565b5b6200064d826200055c565b9050602081019050919050565b60005b838110156200067a5780820151818401526020810190506200065d565b838111156200068a576000848401525b50505050565b6000620006a7620006a18462000624565b620005d2565b905082815260208101848484011115620006c657620006c56200061f565b5b620006d38482856200065a565b509392505050565b600082601f830112620006f357620006f262000557565b5b81516200070584826020860162000690565b91505092915050565b6000620007256200071f84620005f1565b620005d2565b905080602084028301858111156200074257620007416200061a565b5b835b818110156200079057805167ffffffffffffffff8111156200076b576200076a62000557565b5b8086016200077a8982620006db565b8552602085019450505060208101905062000744565b5050509392505050565b600082601f830112620007b257620007b162000557565b5b6003620007c18482856200070e565b91505092915050565b6000819050919050565b620007df81620007ca565b8114620007eb57600080fd5b50565b600081519050620007ff81620007d4565b92915050565b60008060008060008060c0878903121562000825576200082462000427565b5b60006200083589828a016200047f565b96505060206200084889828a01620004ba565b95505060406200085b89828a01620004ff565b94505060606200086e89828a0162000540565b935050608087015167ffffffffffffffff8111156200089257620008916200042c565b5b620008a089828a016200079a565b92505060a0620008b389828a01620007ee565b9150509295509295509295565b7f4e487b7100000000000000000000000000000000000000000000000000000000600052602260045260246000fd5b600060028204905060018216806200090857607f821691505b602082108114156200091f576200091e620008c0565b5b50919050565b60805160a05160c05160e05161010051613b77620009716000396000610fac01526000610f8901526000610f6801526000610f2c0152600081816108d101526109250152613b776000f3fe6080604052600436106101665760003560e01c806370a08231116100d1578063a36f573b1161008a578063b88d4fde11610064578063b88d4fde14610531578063c87b56dd1461055a578063e985e9c514610597578063f2fde38b146105d457610166565b8063a36f573b14610499578063a51cccf3146104d6578063aa1524911461051357610166565b806370a082311461039b578063715018a6146103d85780637a5caab3146103ef5780638da5cb5b1461041a57806395d89b4114610445578063a22cb4651461047057610166565b80633af25975116101235780633af259751461028b5780633ccfd60b146102c857806342842e0e146102df5780635dacf5f4146103085780636352211e146103335780636e02007d1461037057610166565b806301ffc9a71461016b57806306fdde03146101a8578063081812fc146101d3578063095ea7b3146102105780631fe543e31461023957806323b872dd14610262575b600080fd5b34801561017757600080fd5b50610192600480360381019061018d9190612756565b6105fd565b60405161019f919061279e565b60405180910390f35b3480156101b457600080fd5b506101bd6106df565b6040516101ca9190612852565b60405180910390f35b3480156101df57600080fd5b506101fa60048036038101906101f591906128aa565b610771565b6040516102079190612918565b60405180910390f35b34801561021c57600080fd5b506102376004803603810190610232919061295f565b6107b7565b005b34801561024557600080fd5b50610260600480360381019061025b9190612ae7565b6108cf565b005b34801561026e57600080fd5b5061028960048036038101906102849190612b43565b61098f565b005b34801561029757600080fd5b506102b260048036038101906102ad91906128aa565b6109ef565b6040516102bf9190612852565b60405180910390f35b3480156102d457600080fd5b506102dd610a9f565b005b3480156102eb57600080fd5b5061030660048036038101906103019190612b43565b610b53565b005b34801561031457600080fd5b5061031d610b73565b60405161032a9190612c41565b60405180910390f35b34801561033f57600080fd5b5061035a600480360381019061035591906128aa565b610b9e565b6040516103679190612918565b60405180910390f35b34801561037c57600080fd5b50610385610c25565b6040516103929190612c6b565b60405180910390f35b3480156103a757600080fd5b506103c260048036038101906103bd9190612c86565b610c2f565b6040516103cf9190612c6b565b60405180910390f35b3480156103e457600080fd5b506103ed610ce7565b005b3480156103fb57600080fd5b50610404610cfb565b6040516104119190612c6b565b60405180910390f35b34801561042657600080fd5b5061042f610d05565b60405161043c9190612918565b60405180910390f35b34801561045157600080fd5b5061045a610d2f565b6040516104679190612852565b60405180910390f35b34801561047c57600080fd5b5061049760048036038101906104929190612cdf565b610dc1565b005b3480156104a557600080fd5b506104c060048036038101906104bb91906128aa565b610dd7565b6040516104cd9190612918565b60405180910390f35b3480156104e257600080fd5b506104fd60048036038101906104f891906128aa565b610e0a565b60405161050a9190612d96565b60405180910390f35b61051b610eec565b6040516105289190612c6b565b60405180910390f35b34801561053d57600080fd5b5061055860048036038101906105539190612e66565b6110ce565b005b34801561056657600080fd5b50610581600480360381019061057c91906128aa565b611130565b60405161058e9190612852565b60405180910390f35b3480156105a357600080fd5b506105be60048036038101906105b99190612ee9565b611243565b6040516105cb919061279e565b60405180910390f35b3480156105e057600080fd5b506105fb60048036038101906105f69190612c86565b6112d7565b005b60007f80ac58cd000000000000000000000000000000000000000000000000000000007bffffffffffffffffffffffffffffffffffffffffffffffffffffffff1916827bffffffffffffffffffffffffffffffffffffffffffffffffffffffff191614806106c857507f5b5e139f000000000000000000000000000000000000000000000000000000007bffffffffffffffffffffffffffffffffffffffffffffffffffffffff1916827bffffffffffffffffffffffffffffffffffffffffffffffffffffffff1916145b806106d857506106d78261135b565b5b9050919050565b6060600080546106ee90612f58565b80601f016020809104026020016040519081016040528092919081815260200182805461071a90612f58565b80156107675780601f1061073c57610100808354040283529160200191610767565b820191906000526020600020905b81548152906001019060200180831161074a57829003601f168201915b5050505050905090565b600061077c826113c5565b6004600083815260200190815260200160002060009054906101000a900473ffffffffffffffffffffffffffffffffffffffff169050919050565b60006107c282610b9e565b90508073ffffffffffffffffffffffffffffffffffffffff168373ffffffffffffffffffffffffffffffffffffffff161415610833576040517f08c379a000000000000000000000000000000000000000000000000000000000815260040161082a90612ffc565b60405180910390fd5b8073ffffffffffffffffffffffffffffffffffffffff16610852611410565b73ffffffffffffffffffffffffffffffffffffffff16148061088157506108808161087b611410565b611243565b5b6108c0576040517f08c379a00000000000000000000000000000000000000000000000000000000081526004016108b79061308e565b60405180910390fd5b6108ca8383611418565b505050565b7f000000000000000000000000000000000000000000000000000000000000000073ffffffffffffffffffffffffffffffffffffffff163373ffffffffffffffffffffffffffffffffffffffff161461098157337f00000000000000000000000000000000000000000000000000000000000000006040517f1cf993f40000000000000000000000000000000000000000000000000000000081526004016109789291906130ae565b60405180910390fd5b61098b82826114d1565b5050565b6109a061099a611410565b82611670565b6109df576040517f08c379a00000000000000000000000000000000000000000000000000000000081526004016109d690613149565b60405180910390fd5b6109ea838383611705565b505050565b6060600a8281548110610a0557610a04613169565b5b906000526020600020018054610a1a90612f58565b80601f0160208091040260200160405190810160405280929190818152602001828054610a4690612f58565b8015610a935780601f10610a6857610100808354040283529160200191610a93565b820191906000526020600020905b815481529060010190602001808311610a7657829003601f168201915b50505050509050919050565b610aa76119ff565b600047905060003373ffffffffffffffffffffffffffffffffffffffff1682604051610ad2906131c9565b60006040518083038185875af1925050503d8060008114610b0f576040519150601f19603f3d011682016040523d82523d6000602084013e610b14565b606091505b5050905080610b4f576040517fb7b785bf00000000000000000000000000000000000000000000000000000000815260040160405180910390fd5b5050565b610b6e838383604051806020016040528060008152506110ce565b505050565b610b7b612625565b6040518060600160405280600a8152602001601e81526020016064815250905090565b600080610baa83611a7d565b9050600073ffffffffffffffffffffffffffffffffffffffff168173ffffffffffffffffffffffffffffffffffffffff161415610c1c576040517f08c379a0000000000000000000000000000000000000000000000000000000008152600401610c139061322a565b60405180910390fd5b80915050919050565b6000600954905090565b60008073ffffffffffffffffffffffffffffffffffffffff168273ffffffffffffffffffffffffffffffffffffffff161415610ca0576040517f08c379a0000000000000000000000000000000000000000000000000000000008152600401610c97906132bc565b60405180910390fd5b600360008373ffffffffffffffffffffffffffffffffffffffff1673ffffffffffffffffffffffffffffffffffffffff168152602001908152602001600020549050919050565b610cef6119ff565b610cf96000611aba565b565b6000600b54905090565b6000600760009054906101000a900473ffffffffffffffffffffffffffffffffffffffff16905090565b606060018054610d3e90612f58565b80601f0160208091040260200160405190810160405280929190818152602001828054610d6a90612f58565b8015610db75780601f10610d8c57610100808354040283529160200191610db7565b820191906000526020600020905b815481529060010190602001808311610d9a57829003601f168201915b5050505050905090565b610dd3610dcc611410565b8383611b80565b5050565b60086020528060005260406000206000915054906101000a900473ffffffffffffffffffffffffffffffffffffffff1681565b600080600090506000610e1b610b73565b905060005b6003811015610eb457828510158015610e5a5750818160038110610e4757610e46613169565b5b602002015183610e57919061330b565b85105b15610e7c57806002811115610e7257610e71612d1f565b5b9350505050610ee7565b818160038110610e8f57610e8e613169565b5b602002015183610e9f919061330b565b92508080610eac90613361565b915050610e20565b506040517f12806c9d00000000000000000000000000000000000000000000000000000000815260040160405180910390fd5b919050565b6000600b54341015610f2a576040517f5da6d37500000000000000000000000000000000000000000000000000000000815260040160405180910390fd5b7f000000000000000000000000000000000000000000000000000000000000000073ffffffffffffffffffffffffffffffffffffffff16635d3b1d307f00000000000000000000000000000000000000000000000000000000000000007f000000000000000000000000000000000000000000000000000000000000000060037f000000000000000000000000000000000000000000000000000000000000000060016040518663ffffffff1660e01b8152600401610fed959493929190613422565b602060405180830381600087803b15801561100757600080fd5b505af115801561101b573d6000803e3d6000fd5b505050506040513d601f19601f8201168201806040525081019061103f919061348a565b9050336008600083815260200190815260200160002060006101000a81548173ffffffffffffffffffffffffffffffffffffffff021916908373ffffffffffffffffffffffffffffffffffffffff160217905550807ff873236e6cc0ecc5be1a9a35c95ee5b8d1ac4cc7bfef0cc5060391d6cc98e26b336040516110c39190612918565b60405180910390a290565b6110df6110d9611410565b83611670565b61111e576040517f08c379a000000000000000000000000000000000000000000000000000000000815260040161111590613149565b60405180910390fd5b61112a84848484611ced565b50505050565b606061113b826113c5565b600060066000848152602001908152602001600020805461115b90612f58565b80601f016020809104026020016040519081016040528092919081815260200182805461118790612f58565b80156111d45780601f106111a9576101008083540402835291602001916111d4565b820191906000526020600020905b8154815290600101906020018083116111b757829003601f168201915b5050505050905060006111e5611d49565b90506000815114156111fb57819250505061123e565b6000825111156112305780826040516020016112189291906134f3565b6040516020818303038152906040529250505061123e565b61123984611d60565b925050505b919050565b6000600560008473ffffffffffffffffffffffffffffffffffffffff1673ffffffffffffffffffffffffffffffffffffffff16815260200190815260200160002060008373ffffffffffffffffffffffffffffffffffffffff1673ffffffffffffffffffffffffffffffffffffffff16815260200190815260200160002060009054906101000a900460ff16905092915050565b6112df6119ff565b600073ffffffffffffffffffffffffffffffffffffffff168173ffffffffffffffffffffffffffffffffffffffff16141561134f576040517f08c379a000000000000000000000000000000000000000000000000000000000815260040161134690613589565b60405180910390fd5b61135881611aba565b50565b60007f01ffc9a7000000000000000000000000000000000000000000000000000000007bffffffffffffffffffffffffffffffffffffffffffffffffffffffff1916827bffffffffffffffffffffffffffffffffffffffffffffffffffffffff1916149050919050565b6113ce81611dc8565b61140d576040517f08c379a00000000000000000000000000000000000000000000000000000000081526004016114049061322a565b60405180910390fd5b50565b600033905090565b816004600083815260200190815260200160002060006101000a81548173ffffffffffffffffffffffffffffffffffffffff021916908373ffffffffffffffffffffffffffffffffffffffff160217905550808273ffffffffffffffffffffffffffffffffffffffff1661148b83610b9e565b73ffffffffffffffffffffffffffffffffffffffff167f8c5be1e5ebec7d5bd14f71427d1e84f3dd0314c0f7b2291e5b200ac8c7c3b92560405160405180910390a45050565b60006008600084815260200190815260200160002060009054906101000a900473ffffffffffffffffffffffffffffffffffffffff16905060006009549050600060648460008151811061152857611527613169565b5b602002602001015161153a91906135d8565b9050600061154782610e0a565b90506115538484611e09565b61161583600a83600281111561156c5761156b612d1f565b5b8154811061157d5761157c613169565b5b90600052602060002001805461159290612f58565b80601f01602080910402602001604051908101604052809291908181526020018280546115be90612f58565b801561160b5780601f106115e05761010080835404028352916020019161160b565b820191906000526020600020905b8154815290600101906020018083116115ee57829003601f168201915b5050505050611e27565b600160096000828254611628919061330b565b925050819055507f8a269f26b688e110e9cbd887d163dab35cae678fa353a0292de532c0cac1ecdc8185604051611660929190613609565b60405180910390a1505050505050565b60008061167c83610b9e565b90508073ffffffffffffffffffffffffffffffffffffffff168473ffffffffffffffffffffffffffffffffffffffff1614806116be57506116bd8185611243565b5b806116fc57508373ffffffffffffffffffffffffffffffffffffffff166116e484610771565b73ffffffffffffffffffffffffffffffffffffffff16145b91505092915050565b8273ffffffffffffffffffffffffffffffffffffffff1661172582610b9e565b73ffffffffffffffffffffffffffffffffffffffff161461177b576040517f08c379a0000000000000000000000000000000000000000000000000000000008152600401611772906136a4565b60405180910390fd5b600073ffffffffffffffffffffffffffffffffffffffff168273ffffffffffffffffffffffffffffffffffffffff1614156117eb576040517f08c379a00000000000000000000000000000000000000000000000000000000081526004016117e290613736565b60405180910390fd5b6117f88383836001611e9b565b8273ffffffffffffffffffffffffffffffffffffffff1661181882610b9e565b73ffffffffffffffffffffffffffffffffffffffff161461186e576040517f08c379a0000000000000000000000000000000000000000000000000000000008152600401611865906136a4565b60405180910390fd5b6004600082815260200190815260200160002060006101000a81549073ffffffffffffffffffffffffffffffffffffffff02191690556001600360008573ffffffffffffffffffffffffffffffffffffffff1673ffffffffffffffffffffffffffffffffffffffff168152602001908152602001600020600082825403925050819055506001600360008473ffffffffffffffffffffffffffffffffffffffff1673ffffffffffffffffffffffffffffffffffffffff16815260200190815260200160002060008282540192505081905550816002600083815260200190815260200160002060006101000a81548173ffffffffffffffffffffffffffffffffffffffff021916908373ffffffffffffffffffffffffffffffffffffffff160217905550808273ffffffffffffffffffffffffffffffffffffffff168473ffffffffffffffffffffffffffffffffffffffff167fddf252ad1be2c89b69c2b068fc378daa952ba7f163c4a11628f55a4df523b3ef60405160405180910390a46119fa8383836001611fc1565b505050565b611a07611410565b73ffffffffffffffffffffffffffffffffffffffff16611a25610d05565b73ffffffffffffffffffffffffffffffffffffffff1614611a7b576040517f08c379a0000000000000000000000000000000000000000000000000000000008152600401611a72906137a2565b60405180910390fd5b565b60006002600083815260200190815260200160002060009054906101000a900473ffffffffffffffffffffffffffffffffffffffff169050919050565b6000600760009054906101000a900473ffffffffffffffffffffffffffffffffffffffff16905081600760006101000a81548173ffffffffffffffffffffffffffffffffffffffff021916908373ffffffffffffffffffffffffffffffffffffffff1602179055508173ffffffffffffffffffffffffffffffffffffffff168173ffffffffffffffffffffffffffffffffffffffff167f8be0079c531659141344cd1fd0a4f28419497f9722a3daafe3b4186f6b6457e060405160405180910390a35050565b8173ffffffffffffffffffffffffffffffffffffffff168373ffffffffffffffffffffffffffffffffffffffff161415611bef576040517f08c379a0000000000000000000000000000000000000000000000000000000008152600401611be69061380e565b60405180910390fd5b80600560008573ffffffffffffffffffffffffffffffffffffffff1673ffffffffffffffffffffffffffffffffffffffff16815260200190815260200160002060008473ffffffffffffffffffffffffffffffffffffffff1673ffffffffffffffffffffffffffffffffffffffff16815260200190815260200160002060006101000a81548160ff0219169083151502179055508173ffffffffffffffffffffffffffffffffffffffff168373ffffffffffffffffffffffffffffffffffffffff167f17307eab39ab6107e8899845ad3d59bd9653f200f220920489ca2b5937696c3183604051611ce0919061279e565b60405180910390a3505050565b611cf8848484611705565b611d0484848484611fc7565b611d43576040517f08c379a0000000000000000000000000000000000000000000000000000000008152600401611d3a906138a0565b60405180910390fd5b50505050565b606060405180602001604052806000815250905090565b6060611d6b826113c5565b6000611d75611d49565b90506000815111611d955760405180602001604052806000815250611dc0565b80611d9f8461215e565b604051602001611db09291906134f3565b6040516020818303038152906040525b915050919050565b60008073ffffffffffffffffffffffffffffffffffffffff16611dea83611a7d565b73ffffffffffffffffffffffffffffffffffffffff1614159050919050565b611e23828260405180602001604052806000815250612236565b5050565b611e3082611dc8565b611e6f576040517f08c379a0000000000000000000000000000000000000000000000000000000008152600401611e6690613932565b60405180910390fd5b80600660008481526020019081526020016000209080519060200190611e96929190612647565b505050565b6001811115611fbb57600073ffffffffffffffffffffffffffffffffffffffff168473ffffffffffffffffffffffffffffffffffffffff1614611f2f5780600360008673ffffffffffffffffffffffffffffffffffffffff1673ffffffffffffffffffffffffffffffffffffffff1681526020019081526020016000206000828254611f279190613952565b925050819055505b600073ffffffffffffffffffffffffffffffffffffffff168373ffffffffffffffffffffffffffffffffffffffff1614611fba5780600360008573ffffffffffffffffffffffffffffffffffffffff1673ffffffffffffffffffffffffffffffffffffffff1681526020019081526020016000206000828254611fb2919061330b565b925050819055505b5b50505050565b50505050565b6000611fe88473ffffffffffffffffffffffffffffffffffffffff16612291565b15612151578373ffffffffffffffffffffffffffffffffffffffff1663150b7a02612011611410565b8786866040518563ffffffff1660e01b815260040161203394939291906139db565b602060405180830381600087803b15801561204d57600080fd5b505af192505050801561207e57506040513d601f19601f8201168201806040525081019061207b9190613a3c565b60015b612101573d80600081146120ae576040519150601f19603f3d011682016040523d82523d6000602084013e6120b3565b606091505b506000815114156120f9576040517f08c379a00000000000000000000000000000000000000000000000000000000081526004016120f0906138a0565b60405180910390fd5b805181602001fd5b63150b7a0260e01b7bffffffffffffffffffffffffffffffffffffffffffffffffffffffff1916817bffffffffffffffffffffffffffffffffffffffffffffffffffffffff191614915050612156565b600190505b949350505050565b60606000600161216d846122b4565b01905060008167ffffffffffffffff81111561218c5761218b6129a4565b5b6040519080825280601f01601f1916602001820160405280156121be5781602001600182028036833780820191505090505b509050600082602001820190505b60011561222b578080600190039150507f3031323334353637383961626364656600000000000000000000000000000000600a86061a8153600a8581612215576122146135a9565b5b04945060008514156122265761222b565b6121cc565b819350505050919050565b6122408383612407565b61224d6000848484611fc7565b61228c576040517f08c379a0000000000000000000000000000000000000000000000000000000008152600401612283906138a0565b60405180910390fd5b505050565b6000808273ffffffffffffffffffffffffffffffffffffffff163b119050919050565b600080600090507a184f03e93ff9f4daa797ed6e38ed64bf6a1f0100000000000000008310612312577a184f03e93ff9f4daa797ed6e38ed64bf6a1f0100000000000000008381612308576123076135a9565b5b0492506040810190505b6d04ee2d6d415b85acef8100000000831061234f576d04ee2d6d415b85acef81000000008381612345576123446135a9565b5b0492506020810190505b662386f26fc10000831061237e57662386f26fc100008381612374576123736135a9565b5b0492506010810190505b6305f5e10083106123a7576305f5e100838161239d5761239c6135a9565b5b0492506008810190505b61271083106123cc5761271083816123c2576123c16135a9565b5b0492506004810190505b606483106123ef57606483816123e5576123e46135a9565b5b0492506002810190505b600a83106123fe576001810190505b80915050919050565b600073ffffffffffffffffffffffffffffffffffffffff168273ffffffffffffffffffffffffffffffffffffffff161415612477576040517f08c379a000000000000000000000000000000000000000000000000000000000815260040161246e90613ab5565b60405180910390fd5b61248081611dc8565b156124c0576040517f08c379a00000000000000000000000000000000000000000000000000000000081526004016124b790613b21565b60405180910390fd5b6124ce600083836001611e9b565b6124d781611dc8565b15612517576040517f08c379a000000000000000000000000000000000000000000000000000000000815260040161250e90613b21565b60405180910390fd5b6001600360008473ffffffffffffffffffffffffffffffffffffffff1673ffffffffffffffffffffffffffffffffffffffff16815260200190815260200160002060008282540192505081905550816002600083815260200190815260200160002060006101000a81548173ffffffffffffffffffffffffffffffffffffffff021916908373ffffffffffffffffffffffffffffffffffffffff160217905550808273ffffffffffffffffffffffffffffffffffffffff16600073ffffffffffffffffffffffffffffffffffffffff167fddf252ad1be2c89b69c2b068fc378daa952ba7f163c4a11628f55a4df523b3ef60405160405180910390a4612621600083836001611fc1565b5050565b6040518060600160405280600390602082028036833780820191505090505090565b82805461265390612f58565b90600052602060002090601f01602090048101928261267557600085556126bc565b82601f1061268e57805160ff19168380011785556126bc565b828001600101855582156126bc579182015b828111156126bb5782518255916020019190600101906126a0565b5b5090506126c991906126cd565b5090565b5b808211156126e65760008160009055506001016126ce565b5090565b6000604051905090565b600080fd5b600080fd5b60007fffffffff0000000000000000000000000000000000000000000000000000000082169050919050565b612733816126fe565b811461273e57600080fd5b50565b6000813590506127508161272a565b92915050565b60006020828403121561276c5761276b6126f4565b5b600061277a84828501612741565b91505092915050565b60008115159050919050565b61279881612783565b82525050565b60006020820190506127b3600083018461278f565b92915050565b600081519050919050565b600082825260208201905092915050565b60005b838110156127f35780820151818401526020810190506127d8565b83811115612802576000848401525b50505050565b6000601f19601f8301169050919050565b6000612824826127b9565b61282e81856127c4565b935061283e8185602086016127d5565b61284781612808565b840191505092915050565b6000602082019050818103600083015261286c8184612819565b905092915050565b6000819050919050565b61288781612874565b811461289257600080fd5b50565b6000813590506128a48161287e565b92915050565b6000602082840312156128c0576128bf6126f4565b5b60006128ce84828501612895565b91505092915050565b600073ffffffffffffffffffffffffffffffffffffffff82169050919050565b6000612902826128d7565b9050919050565b612912816128f7565b82525050565b600060208201905061292d6000830184612909565b92915050565b61293c816128f7565b811461294757600080fd5b50565b60008135905061295981612933565b92915050565b60008060408385031215612976576129756126f4565b5b60006129848582860161294a565b925050602061299585828601612895565b9150509250929050565b600080fd5b7f4e487b7100000000000000000000000000000000000000000000000000000000600052604160045260246000fd5b6129dc82612808565b810181811067ffffffffffffffff821117156129fb576129fa6129a4565b5b80604052505050565b6000612a0e6126ea565b9050612a1a82826129d3565b919050565b600067ffffffffffffffff821115612a3a57612a396129a4565b5b602082029050602081019050919050565b600080fd5b6000612a63612a5e84612a1f565b612a04565b90508083825260208201905060208402830185811115612a8657612a85612a4b565b5b835b81811015612aaf5780612a9b8882612895565b845260208401935050602081019050612a88565b5050509392505050565b600082601f830112612ace57612acd61299f565b5b8135612ade848260208601612a50565b91505092915050565b60008060408385031215612afe57612afd6126f4565b5b6000612b0c85828601612895565b925050602083013567ffffffffffffffff811115612b2d57612b2c6126f9565b5b612b3985828601612ab9565b9150509250929050565b600080600060608486031215612b5c57612b5b6126f4565b5b6000612b6a8682870161294a565b9350506020612b7b8682870161294a565b9250506040612b8c86828701612895565b9150509250925092565b600060039050919050565b600081905092915050565b6000819050919050565b612bbf81612874565b82525050565b6000612bd18383612bb6565b60208301905092915050565b6000602082019050919050565b612bf381612b96565b612bfd8184612ba1565b9250612c0882612bac565b8060005b83811015612c39578151612c208782612bc5565b9650612c2b83612bdd565b925050600181019050612c0c565b505050505050565b6000606082019050612c566000830184612bea565b92915050565b612c6581612874565b82525050565b6000602082019050612c806000830184612c5c565b92915050565b600060208284031215612c9c57612c9b6126f4565b5b6000612caa8482850161294a565b91505092915050565b612cbc81612783565b8114612cc757600080fd5b50565b600081359050612cd981612cb3565b92915050565b60008060408385031215612cf657612cf56126f4565b5b6000612d048582860161294a565b9250506020612d1585828601612cca565b9150509250929050565b7f4e487b7100000000000000000000000000000000000000000000000000000000600052602160045260246000fd5b60038110612d5f57612d5e612d1f565b5b50565b6000819050612d7082612d4e565b919050565b6000612d8082612d62565b9050919050565b612d9081612d75565b82525050565b6000602082019050612dab6000830184612d87565b92915050565b600080fd5b600067ffffffffffffffff821115612dd157612dd06129a4565b5b612dda82612808565b9050602081019050919050565b82818337600083830152505050565b6000612e09612e0484612db6565b612a04565b905082815260208101848484011115612e2557612e24612db1565b5b612e30848285612de7565b509392505050565b600082601f830112612e4d57612e4c61299f565b5b8135612e5d848260208601612df6565b91505092915050565b60008060008060808587031215612e8057612e7f6126f4565b5b6000612e8e8782880161294a565b9450506020612e9f8782880161294a565b9350506040612eb087828801612895565b925050606085013567ffffffffffffffff811115612ed157612ed06126f9565b5b612edd87828801612e38565b91505092959194509250565b60008060408385031215612f0057612eff6126f4565b5b6000612f0e8582860161294a565b9250506020612f1f8582860161294a565b9150509250929050565b7f4e487b7100000000000000000000000000000000000000000000000000000000600052602260045260246000fd5b60006002820490506001821680612f7057607f821691505b60208210811415612f8457612f83612f29565b5b50919050565b7f4552433732313a20617070726f76616c20746f2063757272656e74206f776e6560008201527f7200000000000000000000000000000000000000000000000000000000000000602082015250565b6000612fe66021836127c4565b9150612ff182612f8a565b604082019050919050565b6000602082019050818103600083015261301581612fd9565b9050919050565b7f4552433732313a20617070726f76652063616c6c6572206973206e6f7420746f60008201527f6b656e206f776e6572206f7220617070726f76656420666f7220616c6c000000602082015250565b6000613078603d836127c4565b91506130838261301c565b604082019050919050565b600060208201905081810360008301526130a78161306b565b9050919050565b60006040820190506130c36000830185612909565b6130d06020830184612909565b9392505050565b7f4552433732313a2063616c6c6572206973206e6f7420746f6b656e206f776e6560008201527f72206f7220617070726f76656400000000000000000000000000000000000000602082015250565b6000613133602d836127c4565b915061313e826130d7565b604082019050919050565b6000602082019050818103600083015261316281613126565b9050919050565b7f4e487b7100000000000000000000000000000000000000000000000000000000600052603260045260246000fd5b600081905092915050565b50565b60006131b3600083613198565b91506131be826131a3565b600082019050919050565b60006131d4826131a6565b9150819050919050565b7f4552433732313a20696e76616c696420746f6b656e2049440000000000000000600082015250565b60006132146018836127c4565b915061321f826131de565b602082019050919050565b6000602082019050818103600083015261324381613207565b9050919050565b7f4552433732313a2061646472657373207a65726f206973206e6f74206120766160008201527f6c6964206f776e65720000000000000000000000000000000000000000000000602082015250565b60006132a66029836127c4565b91506132b18261324a565b604082019050919050565b600060208201905081810360008301526132d581613299565b9050919050565b7f4e487b7100000000000000000000000000000000000000000000000000000000600052601160045260246000fd5b600061331682612874565b915061332183612874565b9250827fffffffffffffffffffffffffffffffffffffffffffffffffffffffffffffffff03821115613356576133556132dc565b5b828201905092915050565b600061336c82612874565b91507fffffffffffffffffffffffffffffffffffffffffffffffffffffffffffffffff82141561339f5761339e6132dc565b5b600182019050919050565b6000819050919050565b6133bd816133aa565b82525050565b600067ffffffffffffffff82169050919050565b6133e0816133c3565b82525050565b600061ffff82169050919050565b6133fd816133e6565b82525050565b600063ffffffff82169050919050565b61341c81613403565b82525050565b600060a08201905061343760008301886133b4565b61344460208301876133d7565b61345160408301866133f4565b61345e6060830185613413565b61346b6080830184613413565b9695505050505050565b6000815190506134848161287e565b92915050565b6000602082840312156134a05761349f6126f4565b5b60006134ae84828501613475565b91505092915050565b600081905092915050565b60006134cd826127b9565b6134d781856134b7565b93506134e78185602086016127d5565b80840191505092915050565b60006134ff82856134c2565b915061350b82846134c2565b91508190509392505050565b7f4f776e61626c653a206e6577206f776e657220697320746865207a65726f206160008201527f6464726573730000000000000000000000000000000000000000000000000000602082015250565b60006135736026836127c4565b915061357e82613517565b604082019050919050565b600060208201905081810360008301526135a281613566565b9050919050565b7f4e487b7100000000000000000000000000000000000000000000000000000000600052601260045260246000fd5b60006135e382612874565b91506135ee83612874565b9250826135fe576135fd6135a9565b5b828206905092915050565b600060408201905061361e6000830185612d87565b61362b6020830184612909565b9392505050565b7f4552433732313a207472616e736665722066726f6d20696e636f72726563742060008201527f6f776e6572000000000000000000000000000000000000000000000000000000602082015250565b600061368e6025836127c4565b915061369982613632565b604082019050919050565b600060208201905081810360008301526136bd81613681565b9050919050565b7f4552433732313a207472616e7366657220746f20746865207a65726f2061646460008201527f7265737300000000000000000000000000000000000000000000000000000000602082015250565b60006137206024836127c4565b915061372b826136c4565b604082019050919050565b6000602082019050818103600083015261374f81613713565b9050919050565b7f4f776e61626c653a2063616c6c6572206973206e6f7420746865206f776e6572600082015250565b600061378c6020836127c4565b915061379782613756565b602082019050919050565b600060208201905081810360008301526137bb8161377f565b9050919050565b7f4552433732313a20617070726f766520746f2063616c6c657200000000000000600082015250565b60006137f86019836127c4565b9150613803826137c2565b602082019050919050565b60006020820190508181036000830152613827816137eb565b9050919050565b7f4552433732313a207472616e7366657220746f206e6f6e20455243373231526560008201527f63656976657220696d706c656d656e7465720000000000000000000000000000602082015250565b600061388a6032836127c4565b91506138958261382e565b604082019050919050565b600060208201905081810360008301526138b98161387d565b9050919050565b7f45524337323155524953746f726167653a2055524920736574206f66206e6f6e60008201527f6578697374656e7420746f6b656e000000000000000000000000000000000000602082015250565b600061391c602e836127c4565b9150613927826138c0565b604082019050919050565b6000602082019050818103600083015261394b8161390f565b9050919050565b600061395d82612874565b915061396883612874565b92508282101561397b5761397a6132dc565b5b828203905092915050565b600081519050919050565b600082825260208201905092915050565b60006139ad82613986565b6139b78185613991565b93506139c78185602086016127d5565b6139d081612808565b840191505092915050565b60006080820190506139f06000830187612909565b6139fd6020830186612909565b613a0a6040830185612c5c565b8181036060830152613a1c81846139a2565b905095945050505050565b600081519050613a368161272a565b92915050565b600060208284031215613a5257613a516126f4565b5b6000613a6084828501613a27565b91505092915050565b7f4552433732313a206d696e7420746f20746865207a65726f2061646472657373600082015250565b6000613a9f6020836127c4565b9150613aaa82613a69565b602082019050919050565b60006020820190508181036000830152613ace81613a92565b9050919050565b7f4552433732313a20746f6b656e20616c7265616479206d696e74656400000000600082015250565b6000613b0b601c836127c4565b9150613b1682613ad5565b602082019050919050565b60006020820190508181036000830152613b3a81613afe565b905091905056fea2646970667358221220a0c20949461f3bb1e6d5135c69efcd29f0f3971d35f9d779f4dfe81814a38b3964736f6c63430008090033",
  "linkReferences": {},
  "deployedLinkReferences": {}
}