{
  "address": "0xa6561AcCeBE1261A264e0D8A5cD9c6f0A556530e",
  "abi": [
    {
      "inputs": [
        {
          "internalType": "address",
          "name": "priceFeedAddress",
          "type": "address"
        },
        {
          "internalType": "string",
          "name": "lowSvg",
          "type": "string"
        },
        {
          "internalType": "string",
          "name": "highSvg",
          "type": "string"
        }
      ],
      "stateMutability": "nonpayable",
      "type": "constructor"
    },
    {
      "anonymous": false,
      "inputs": [
        {
          "indexed": true,
          "internalType": "address",
          "name": "owner",
          "type": "address"
        },
        {
          "indexed": true,
          "internalType": "address",
          "name": "approved",
          "type": "address"
        },
        {
          "indexed": true,
          "internalType": "uint256",
          "name": "tokenId",
          "type": "uint256"
        }
      ],
      "name": "Approval",
      "type": "event"
    },
    {
      "anonymous": false,
      "inputs": [
        {
          "indexed": true,
          "internalType": "address",
          "name": "owner",
          "type": "address"
        },
        {
          "indexed": true,
          "internalType": "address",
          "name": "operator",
          "type": "address"
        },
        {
          "indexed": false,
          "internalType": "bool",
          "name": "approved",
          "type": "bool"
        }
      ],
      "name": "ApprovalForAll",
      "type": "event"
    },
    {
      "anonymous": false,
      "inputs": [
        {
          "indexed": true,
          "internalType": "uint256",
          "name": "tokenId",
          "type": "uint256"
        },
        {
          "indexed": false,
          "internalType": "int256",
          "name": "highValue",
          "type": "int256"
        }
      ],
      "name": "CreatedNFT",
      "type": "event"
    },
    {
      "anonymous": false,
      "inputs": [
        {
          "indexed": true,
          "internalType": "address",
          "name": "from",
          "type": "address"
        },
        {
          "indexed": true,
          "internalType": "address",
          "name": "to",
          "type": "address"
        },
        {
          "indexed": true,
          "internalType": "uint256",
          "name": "tokenId",
          "type": "uint256"
        }
      ],
      "name": "Transfer",
      "type": "event"
    },
    {
      "inputs": [
        {
          "internalType": "address",
          "name": "to",
          "type": "address"
        },
        {
          "internalType": "uint256",
          "name": "tokenId",
          "type": "uint256"
        }
      ],
      "name": "approve",
      "outputs": [],
      "stateMutability": "nonpayable",
      "type": "function"
    },
    {
      "inputs": [
        {
          "internalType": "address",
          "name": "owner",
          "type": "address"
        }
      ],
      "name": "balanceOf",
      "outputs": [
        {
          "internalType": "uint256",
          "name": "",
          "type": "uint256"
        }
      ],
      "stateMutability": "view",
      "type": "function"
    },
    {
      "inputs": [
        {
          "internalType": "uint256",
          "name": "tokenId",
          "type": "uint256"
        }
      ],
      "name": "getApproved",
      "outputs": [
        {
          "internalType": "address",
          "name": "",
          "type": "address"
        }
      ],
      "stateMutability": "view",
      "type": "function"
    },
    {
      "inputs": [],
      "name": "getHighImageUri",
      "outputs": [
        {
          "internalType": "string",
          "name": "",
          "type": "string"
        }
      ],
      "stateMutability": "view",
      "type": "function"
    },
    {
      "inputs": [],
      "name": "getLowImageUri",
      "outputs": [
        {
          "internalType": "string",
          "name": "",
          "type": "string"
        }
      ],
      "stateMutability": "view",
      "type": "function"
    },
    {
      "inputs": [],
      "name": "getTokenCounter",
      "outputs": [
        {
          "internalType": "uint256",
          "name": "",
          "type": "uint256"
        }
      ],
      "stateMutability": "view",
      "type": "function"
    },
    {
      "inputs": [
        {
          "internalType": "address",
          "name": "owner",
          "type": "address"
        },
        {
          "internalType": "address",
          "name": "operator",
          "type": "address"
        }
      ],
      "name": "isApprovedForAll",
      "outputs": [
        {
          "internalType": "bool",
          "name": "",
          "type": "bool"
        }
      ],
      "stateMutability": "view",
      "type": "function"
    },
    {
      "inputs": [
        {
          "internalType": "int256",
          "name": "highValue",
          "type": "int256"
        }
      ],
      "name": "mintNft",
      "outputs": [],
      "stateMutability": "nonpayable",
      "type": "function"
    },
    {
      "inputs": [],
      "name": "name",
      "outputs": [
        {
          "internalType": "string",
          "name": "",
          "type": "string"
        }
      ],
      "stateMutability": "view",
      "type": "function"
    },
    {
      "inputs": [
        {
          "internalType": "uint256",
          "name": "tokenId",
          "type": "uint256"
        }
      ],
      "name": "ownerOf",
      "outputs": [
        {
          "internalType": "address",
          "name": "",
          "type": "address"
        }
      ],
      "stateMutability": "view",
      "type": "function"
    },
    {
      "inputs": [
        {
          "internalType": "uint256",
          "name": "",
          "type": "uint256"
        }
      ],
      "name": "s_tokenIdToHighValue",
      "outputs": [
        {
          "internalType": "int256",
          "name": "",
          "type": "int256"
        }
      ],
      "stateMutability": "view",
      "type": "function"
    },
    {
      "inputs": [
        {
          "internalType": "address",
          "name": "from",
          "type": "address"
        },
        {
          "internalType": "address",
          "name": "to",
          "type": "address"
        },
        {
          "internalType": "uint256",
          "name": "tokenId",
          "type": "uint256"
        }
      ],
      "name": "safeTransferFrom",
      "outputs": [],
      "stateMutability": "nonpayable",
      "type": "function"
    },
    {
      "inputs": [
        {
          "internalType": "address",
          "name": "from",
          "type": "address"
        },
        {
          "internalType": "address",
          "name": "to",
          "type": "address"
        },
        {
          "internalType": "uint256",
          "name": "tokenId",
          "type": "uint256"
        },
        {
          "internalType": "bytes",
          "name": "data",
          "type": "bytes"
        }
      ],
      "name": "safeTransferFrom",
      "outputs": [],
      "stateMutability": "nonpayable",
      "type": "function"
    },
    {
      "inputs": [
        {
          "internalType": "address",
          "name": "operator",
          "type": "address"
        },
        {
          "internalType": "bool",
          "name": "approved",
          "type": "bool"
        }
      ],
      "name": "setApprovalForAll",
      "outputs": [],
      "stateMutability": "nonpayable",
      "type": "function"
    },
    {
      "inputs": [
        {
          "internalType": "bytes4",
          "name": "interfaceId",
          "type": "bytes4"
        }
      ],
      "name": "supportsInterface",
      "outputs": [
        {
          "internalType": "bool",
          "name": "",
          "type": "bool"
        }
      ],
      "stateMutability": "view",
      "type": "function"
    },
    {
      "inputs": [
        {
          "internalType": "string",
          "name": "svg",
          "type": "string"
        }
      ],
      "name": "svgToImageURI",
      "outputs": [
        {
          "internalType": "string",
          "name": "",
          "type": "string"
        }
      ],
      "stateMutability": "pure",
      "type": "function"
    },
    {
      "inputs": [],
      "name": "symbol",
      "outputs": [
        {
          "internalType": "string",
          "name": "",
          "type": "string"
        }
      ],
      "stateMutability": "view",
      "type": "function"
    },
    {
      "inputs": [
        {
          "internalType": "uint256",
          "name": "tokenId",
          "type": "uint256"
        }
      ],
      "name": "tokenURI",
      "outputs": [
        {
          "internalType": "string",
          "name": "",
          "type": "string"
        }
      ],
      "stateMutability": "view",
      "type": "function"
    },
    {
      "inputs": [
        {
          "internalType": "address",
          "name": "from",
          "type": "address"
        },
        {
          "internalType": "address",
          "name": "to",
          "type": "address"
        },
        {
          "internalType": "uint256",
          "name": "tokenId",
          "type": "uint256"
        }
      ],
      "name": "transferFrom",
      "outputs": [],
      "stateMutability": "nonpayable",
      "type": "function"
    }
  ],
  "transactionHash": "0xa8d39511f590e1f69eb4d73d2629fb90b746a5ab0711cf5776e69fde404a14de",
  "args": [
    "0xD4a33860578De61DBAbDc8BFdb98FD742fA7028e",
    "<?xml version=\"1.0\" standalone=\"no\"?>\n<svg width=\"1024px\" height=\"1024px\" viewBox=\"0 0 1024 1024\" xmlns=\"http://www.w3.org/2000/svg\">\n  <path fill=\"#333\" d=\"M512 64C264.6 64 64 264.6 64 512s200.6 448 448 448 448-200.6 448-448S759.4 64 512 64zm0 820c-205.4 0-372-166.6-372-372s166.6-372 372-372 372 166.6 372 372-166.6 372-372 372z\"/>\n  <path fill=\"#E6E6E6\" d=\"M512 140c-205.4 0-372 166.6-372 372s166.6 372 372 372 372-166.6 372-372-166.6-372-372-372zM288 421a48.01 48.01 0 0 1 96 0 48.01 48.01 0 0 1-96 0zm376 272h-48.1c-4.2 0-7.8-3.2-8.1-7.4C604 636.1 562.5 597 512 597s-92.1 39.1-95.8 88.6c-.3 4.2-3.9 7.4-8.1 7.4H360a8 8 0 0 1-8-8.4c4.4-84.3 74.5-151.6 160-151.6s155.6 67.3 160 151.6a8 8 0 0 1-8 8.4zm24-224a48.01 48.01 0 0 1 0-96 48.01 48.01 0 0 1 0 96z\"/>\n  <path fill=\"#333\" d=\"M288 421a48 48 0 1 0 96 0 48 48 0 1 0-96 0zm224 112c-85.5 0-155.6 67.3-160 151.6a8 8 0 0 0 8 8.4h48.1c4.2 0 7.8-3.2 8.1-7.4 3.7-49.5 45.3-88.6 95.8-88.6s92 39.1 95.8 88.6c.3 4.2 3.9 7.4 8.1 7.4H664a8 8 0 0 0 8-8.4C667.6 600.3 597.5 533 512 533zm128-112a48 48 0 1 0 96 0 48 48 0 1 0-96 0z\"/>\n</svg>\n",
    "<svg viewBox=\"0 0 200 200\" width=\"400\"  height=\"400\" xmlns=\"http://www.w3.org/2000/svg\">\n  <circle cx=\"100\" cy=\"100\" fill=\"yellow\" r=\"78\" stroke=\"black\" stroke-width=\"3\"/>\n  <g class=\"eyes\">\n    <circle cx=\"61\" cy=\"82\" r=\"12\"/>\n    <circle cx=\"127\" cy=\"82\" r=\"12\"/>\n  </g>\n  <path d=\"m136.81 116.53c.69 26.17-64.11 42-81.52-.73\" style=\"fill:none; stroke: black; stroke-width: 3;\"/>\n</svg>"
  ],
  "numDeployments": 1,
  "solcInputHash": "72dec4e6261ae23d90849ae2dc4c847c",
  "bytecode": "0x60a06040523480156200001157600080fd5b5060405162003af538038062003af583398181016040528101906200003791906200064c565b6040518060400160405280600f81526020017f44796e616d696320535647204e465400000000000000000000000000000000008152506040518060400160405280600381526020017f44534e00000000000000000000000000000000000000000000000000000000008152508160009080519060200190620000bb9291906200039a565b508060019080519060200190620000d49291906200039a565b5050506000600681905550620000f0826200016e60201b60201c565b60079080519060200190620001079291906200039a565b5062000119816200016e60201b60201c565b60089080519060200190620001309291906200039a565b508273ffffffffffffffffffffffffffffffffffffffff1660808173ffffffffffffffffffffffffffffffffffffffff168152505050505062000937565b60606000620001a98360405160200162000189919062000733565b6040516020818303038152906040526200020c60201b62000eec1760201c565b90506040518060400160405280601a81526020017f646174613a696d6167652f7376672b786d6c3b6261736536342c00000000000081525081604051602001620001f59291906200074c565b604051602081830303815290604052915050919050565b6060600082511415620002315760405180602001604052806000815250905062000395565b600060405180606001604052806040815260200162003ab56040913990506000600360028551620002639190620007ad565b6200026f919062000839565b60046200027d919062000871565b90506000602082620002909190620007ad565b67ffffffffffffffff811115620002ac57620002ab620004de565b5b6040519080825280601f01601f191660200182016040528015620002df5781602001600182028036833780820191505090505b509050818152600183018586518101602084015b8183101562000350576003830192508251603f8160121c168501518253600182019150603f81600c1c168501518253600182019150603f8160061c168501518253600182019150603f8116850151825360018201915050620002f3565b6003895106600181146200036d57600281146200037e5762000389565b613d3d60f01b600283035262000389565b603d60f81b60018303525b50505050508093505050505b919050565b828054620003a89062000901565b90600052602060002090601f016020900481019282620003cc576000855562000418565b82601f10620003e757805160ff191683800117855562000418565b8280016001018555821562000418579182015b8281111562000417578251825591602001919060010190620003fa565b5b5090506200042791906200042b565b5090565b5b80821115620004465760008160009055506001016200042c565b5090565b6000604051905090565b600080fd5b600080fd5b600073ffffffffffffffffffffffffffffffffffffffff82169050919050565b60006200048b826200045e565b9050919050565b6200049d816200047e565b8114620004a957600080fd5b50565b600081519050620004bd8162000492565b92915050565b600080fd5b600080fd5b6000601f19601f8301169050919050565b7f4e487b7100000000000000000000000000000000000000000000000000000000600052604160045260246000fd5b6200051882620004cd565b810181811067ffffffffffffffff821117156200053a5762000539620004de565b5b80604052505050565b60006200054f6200044a565b90506200055d82826200050d565b919050565b600067ffffffffffffffff82111562000580576200057f620004de565b5b6200058b82620004cd565b9050602081019050919050565b60005b83811015620005b85780820151818401526020810190506200059b565b83811115620005c8576000848401525b50505050565b6000620005e5620005df8462000562565b62000543565b905082815260208101848484011115620006045762000603620004c8565b5b6200061184828562000598565b509392505050565b600082601f830112620006315762000630620004c3565b5b815162000643848260208601620005ce565b91505092915050565b60008060006060848603121562000668576200066762000454565b5b60006200067886828701620004ac565b935050602084015167ffffffffffffffff8111156200069c576200069b62000459565b5b620006aa8682870162000619565b925050604084015167ffffffffffffffff811115620006ce57620006cd62000459565b5b620006dc8682870162000619565b9150509250925092565b600081519050919050565b600081905092915050565b60006200070982620006e6565b620007158185620006f1565b93506200072781856020860162000598565b80840191505092915050565b6000620007418284620006fc565b915081905092915050565b60006200075a8285620006fc565b9150620007688284620006fc565b91508190509392505050565b6000819050919050565b7f4e487b7100000000000000000000000000000000000000000000000000000000600052601160045260246000fd5b6000620007ba8262000774565b9150620007c78362000774565b9250827fffffffffffffffffffffffffffffffffffffffffffffffffffffffffffffffff03821115620007ff57620007fe6200077e565b5b828201905092915050565b7f4e487b7100000000000000000000000000000000000000000000000000000000600052601260045260246000fd5b6000620008468262000774565b9150620008538362000774565b9250826200086657620008656200080a565b5b828204905092915050565b60006200087e8262000774565b91506200088b8362000774565b9250817fffffffffffffffffffffffffffffffffffffffffffffffffffffffffffffffff0483118215151615620008c757620008c66200077e565b5b828202905092915050565b7f4e487b7100000000000000000000000000000000000000000000000000000000600052602260045260246000fd5b600060028204905060018216806200091a57607f821691505b60208210811415620009315762000930620008d2565b5b50919050565b608051613162620009536000396000610c0501526131626000f3fe608060405234801561001057600080fd5b50600436106101215760003560e01c806367e5366c116100ad578063a22cb46511610071578063a22cb4651461031c578063b88d4fde14610338578063c87b56dd14610354578063e425aded14610384578063e985e9c5146103b457610121565b806367e5366c146102745780636e02007d1461029257806370a08231146102b05780638fb7e271146102e057806395d89b41146102fe57610121565b80631e930812116100f45780631e930812146101c057806323b872dd146101dc57806330d871c6146101f857806342842e0e146102285780636352211e1461024457610121565b806301ffc9a71461012657806306fdde0314610156578063081812fc14610174578063095ea7b3146101a4575b600080fd5b610140600480360381019061013b9190611dd7565b6103e4565b60405161014d9190611e1f565b60405180910390f35b61015e6104c6565b60405161016b9190611ed3565b60405180910390f35b61018e60048036038101906101899190611f2b565b610558565b60405161019b9190611f99565b60405180910390f35b6101be60048036038101906101b99190611fe0565b61059e565b005b6101da60048036038101906101d59190612056565b6106b6565b005b6101f660048036038101906101f19190612083565b610733565b005b610212600480360381019061020d919061220b565b610793565b60405161021f9190611ed3565b60405180910390f35b610242600480360381019061023d9190612083565b610820565b005b61025e60048036038101906102599190611f2b565b610840565b60405161026b9190611f99565b60405180910390f35b61027c6108c7565b6040516102899190611ed3565b60405180910390f35b61029a610959565b6040516102a79190612263565b60405180910390f35b6102ca60048036038101906102c5919061227e565b610963565b6040516102d79190612263565b60405180910390f35b6102e8610a1b565b6040516102f59190611ed3565b60405180910390f35b610306610aad565b6040516103139190611ed3565b60405180910390f35b610336600480360381019061033191906122d7565b610b3f565b005b610352600480360381019061034d91906123b8565b610b55565b005b61036e60048036038101906103699190611f2b565b610bb7565b60405161037b9190611ed3565b60405180910390f35b61039e60048036038101906103999190611f2b565b610e40565b6040516103ab919061244a565b60405180910390f35b6103ce60048036038101906103c99190612465565b610e58565b6040516103db9190611e1f565b60405180910390f35b60007f80ac58cd000000000000000000000000000000000000000000000000000000007bffffffffffffffffffffffffffffffffffffffffffffffffffffffff1916827bffffffffffffffffffffffffffffffffffffffffffffffffffffffff191614806104af57507f5b5e139f000000000000000000000000000000000000000000000000000000007bffffffffffffffffffffffffffffffffffffffffffffffffffffffff1916827bffffffffffffffffffffffffffffffffffffffffffffffffffffffff1916145b806104bf57506104be82611065565b5b9050919050565b6060600080546104d5906124d4565b80601f0160208091040260200160405190810160405280929190818152602001828054610501906124d4565b801561054e5780601f106105235761010080835404028352916020019161054e565b820191906000526020600020905b81548152906001019060200180831161053157829003601f168201915b5050505050905090565b6000610563826110cf565b6004600083815260200190815260200160002060009054906101000a900473ffffffffffffffffffffffffffffffffffffffff169050919050565b60006105a982610840565b90508073ffffffffffffffffffffffffffffffffffffffff168373ffffffffffffffffffffffffffffffffffffffff16141561061a576040517f08c379a000000000000000000000000000000000000000000000000000000000815260040161061190612578565b60405180910390fd5b8073ffffffffffffffffffffffffffffffffffffffff1661063961111a565b73ffffffffffffffffffffffffffffffffffffffff16148061066857506106678161066261111a565b610e58565b5b6106a7576040517f08c379a000000000000000000000000000000000000000000000000000000000815260040161069e9061260a565b60405180910390fd5b6106b18383611122565b505050565b80600960006006548152602001908152602001600020819055506106dc336006546111db565b6001600660008282546106ef9190612659565b925050819055506006547f882d3b5a729a8bb95cf6c0083c99b42ecd9637123d4425bd7b768877fd8af8b082604051610728919061244a565b60405180910390a250565b61074461073e61111a565b826111f9565b610783576040517f08c379a000000000000000000000000000000000000000000000000000000000815260040161077a90612721565b60405180910390fd5b61078e83838361128e565b505050565b606060006107bf836040516020016107ab919061277d565b604051602081830303815290604052610eec565b90506040518060400160405280601a81526020017f646174613a696d6167652f7376672b786d6c3b6261736536342c00000000000081525081604051602001610809929190612794565b604051602081830303815290604052915050919050565b61083b83838360405180602001604052806000815250610b55565b505050565b60008061084c83611588565b9050600073ffffffffffffffffffffffffffffffffffffffff168173ffffffffffffffffffffffffffffffffffffffff1614156108be576040517f08c379a00000000000000000000000000000000000000000000000000000000081526004016108b590612804565b60405180910390fd5b80915050919050565b6060600880546108d6906124d4565b80601f0160208091040260200160405190810160405280929190818152602001828054610902906124d4565b801561094f5780601f106109245761010080835404028352916020019161094f565b820191906000526020600020905b81548152906001019060200180831161093257829003601f168201915b5050505050905090565b6000600654905090565b60008073ffffffffffffffffffffffffffffffffffffffff168273ffffffffffffffffffffffffffffffffffffffff1614156109d4576040517f08c379a00000000000000000000000000000000000000000000000000000000081526004016109cb90612896565b60405180910390fd5b600360008373ffffffffffffffffffffffffffffffffffffffff1673ffffffffffffffffffffffffffffffffffffffff168152602001908152602001600020549050919050565b606060078054610a2a906124d4565b80601f0160208091040260200160405190810160405280929190818152602001828054610a56906124d4565b8015610aa35780601f10610a7857610100808354040283529160200191610aa3565b820191906000526020600020905b815481529060010190602001808311610a8657829003601f168201915b5050505050905090565b606060018054610abc906124d4565b80601f0160208091040260200160405190810160405280929190818152602001828054610ae8906124d4565b8015610b355780601f10610b0a57610100808354040283529160200191610b35565b820191906000526020600020905b815481529060010190602001808311610b1857829003601f168201915b5050505050905090565b610b51610b4a61111a565b83836115c5565b5050565b610b66610b6061111a565b836111f9565b610ba5576040517f08c379a0000000000000000000000000000000000000000000000000000000008152600401610b9c90612721565b60405180910390fd5b610bb184848484611732565b50505050565b6060610bc28261178e565b610c01576040517f08c379a0000000000000000000000000000000000000000000000000000000008152600401610bf890612902565b60405180910390fd5b60007f000000000000000000000000000000000000000000000000000000000000000073ffffffffffffffffffffffffffffffffffffffff1663feaf968c6040518163ffffffff1660e01b815260040160a06040518083038186803b158015610c6957600080fd5b505afa158015610c7d573d6000803e3d6000fd5b505050506040513d601f19601f82011682018060405250810190610ca1919061298e565b505050915050600060078054610cb6906124d4565b80601f0160208091040260200160405190810160405280929190818152602001828054610ce2906124d4565b8015610d2f5780601f10610d0457610100808354040283529160200191610d2f565b820191906000526020600020905b815481529060010190602001808311610d1257829003601f168201915b5050505050905060096000858152602001908152602001600020548212610dde5760088054610d5d906124d4565b80601f0160208091040260200160405190810160405280929190818152602001828054610d89906124d4565b8015610dd65780601f10610dab57610100808354040283529160200191610dd6565b820191906000526020600020905b815481529060010190602001808311610db957829003601f168201915b505050505090505b610de66117cf565b610e17610df16104c6565b83604051602001610e03929190612bd1565b604051602081830303815290604052610eec565b604051602001610e28929190612794565b60405160208183030381529060405292505050919050565b60096020528060005260406000206000915090505481565b6000600560008473ffffffffffffffffffffffffffffffffffffffff1673ffffffffffffffffffffffffffffffffffffffff16815260200190815260200160002060008373ffffffffffffffffffffffffffffffffffffffff1673ffffffffffffffffffffffffffffffffffffffff16815260200190815260200160002060009054906101000a900460ff16905092915050565b6060600082511415610f0f57604051806020016040528060008152509050611060565b60006040518060600160405280604081526020016130ed6040913990506000600360028551610f3e9190612659565b610f489190612c50565b6004610f549190612c81565b90506000602082610f659190612659565b67ffffffffffffffff811115610f7e57610f7d6120e0565b5b6040519080825280601f01601f191660200182016040528015610fb05781602001600182028036833780820191505090505b509050818152600183018586518101602084015b8183101561101f576003830192508251603f8160121c168501518253600182019150603f81600c1c168501518253600182019150603f8160061c168501518253600182019150603f8116850151825360018201915050610fc4565b600389510660018114611039576002811461104957611054565b613d3d60f01b6002830352611054565b603d60f81b60018303525b50505050508093505050505b919050565b60007f01ffc9a7000000000000000000000000000000000000000000000000000000007bffffffffffffffffffffffffffffffffffffffffffffffffffffffff1916827bffffffffffffffffffffffffffffffffffffffffffffffffffffffff1916149050919050565b6110d88161178e565b611117576040517f08c379a000000000000000000000000000000000000000000000000000000000815260040161110e90612804565b60405180910390fd5b50565b600033905090565b816004600083815260200190815260200160002060006101000a81548173ffffffffffffffffffffffffffffffffffffffff021916908373ffffffffffffffffffffffffffffffffffffffff160217905550808273ffffffffffffffffffffffffffffffffffffffff1661119583610840565b73ffffffffffffffffffffffffffffffffffffffff167f8c5be1e5ebec7d5bd14f71427d1e84f3dd0314c0f7b2291e5b200ac8c7c3b92560405160405180910390a45050565b6111f582826040518060200160405280600081525061180c565b5050565b60008061120583610840565b90508073ffffffffffffffffffffffffffffffffffffffff168473ffffffffffffffffffffffffffffffffffffffff16148061124757506112468185610e58565b5b8061128557508373ffffffffffffffffffffffffffffffffffffffff1661126d84610558565b73ffffffffffffffffffffffffffffffffffffffff16145b91505092915050565b8273ffffffffffffffffffffffffffffffffffffffff166112ae82610840565b73ffffffffffffffffffffffffffffffffffffffff1614611304576040517f08c379a00000000000000000000000000000000000000000000000000000000081526004016112fb90612d4d565b60405180910390fd5b600073ffffffffffffffffffffffffffffffffffffffff168273ffffffffffffffffffffffffffffffffffffffff161415611374576040517f08c379a000000000000000000000000000000000000000000000000000000000815260040161136b90612ddf565b60405180910390fd5b6113818383836001611867565b8273ffffffffffffffffffffffffffffffffffffffff166113a182610840565b73ffffffffffffffffffffffffffffffffffffffff16146113f7576040517f08c379a00000000000000000000000000000000000000000000000000000000081526004016113ee90612d4d565b60405180910390fd5b6004600082815260200190815260200160002060006101000a81549073ffffffffffffffffffffffffffffffffffffffff02191690556001600360008573ffffffffffffffffffffffffffffffffffffffff1673ffffffffffffffffffffffffffffffffffffffff168152602001908152602001600020600082825403925050819055506001600360008473ffffffffffffffffffffffffffffffffffffffff1673ffffffffffffffffffffffffffffffffffffffff16815260200190815260200160002060008282540192505081905550816002600083815260200190815260200160002060006101000a81548173ffffffffffffffffffffffffffffffffffffffff021916908373ffffffffffffffffffffffffffffffffffffffff160217905550808273ffffffffffffffffffffffffffffffffffffffff168473ffffffffffffffffffffffffffffffffffffffff167fddf252ad1be2c89b69c2b068fc378daa952ba7f163c4a11628f55a4df523b3ef60405160405180910390a4611583838383600161198d565b505050565b60006002600083815260200190815260200160002060009054906101000a900473ffffffffffffffffffffffffffffffffffffffff169050919050565b8173ffffffffffffffffffffffffffffffffffffffff168373ffffffffffffffffffffffffffffffffffffffff161415611634576040517f08c379a000000000000000000000000000000000000000000000000000000000815260040161162b90612e4b565b60405180910390fd5b80600560008573ffffffffffffffffffffffffffffffffffffffff1673ffffffffffffffffffffffffffffffffffffffff16815260200190815260200160002060008473ffffffffffffffffffffffffffffffffffffffff1673ffffffffffffffffffffffffffffffffffffffff16815260200190815260200160002060006101000a81548160ff0219169083151502179055508173ffffffffffffffffffffffffffffffffffffffff168373ffffffffffffffffffffffffffffffffffffffff167f17307eab39ab6107e8899845ad3d59bd9653f200f220920489ca2b5937696c31836040516117259190611e1f565b60405180910390a3505050565b61173d84848461128e565b61174984848484611993565b611788576040517f08c379a000000000000000000000000000000000000000000000000000000000815260040161177f90612edd565b60405180910390fd5b50505050565b60008073ffffffffffffffffffffffffffffffffffffffff166117b083611588565b73ffffffffffffffffffffffffffffffffffffffff1614159050919050565b60606040518060400160405280601d81526020017f646174613a6170706c69636174696f6e2f6a736f6e3b6261736536342c000000815250905090565b6118168383611b2a565b6118236000848484611993565b611862576040517f08c379a000000000000000000000000000000000000000000000000000000000815260040161185990612edd565b60405180910390fd5b505050565b600181111561198757600073ffffffffffffffffffffffffffffffffffffffff168473ffffffffffffffffffffffffffffffffffffffff16146118fb5780600360008673ffffffffffffffffffffffffffffffffffffffff1673ffffffffffffffffffffffffffffffffffffffff16815260200190815260200160002060008282546118f39190612efd565b925050819055505b600073ffffffffffffffffffffffffffffffffffffffff168373ffffffffffffffffffffffffffffffffffffffff16146119865780600360008573ffffffffffffffffffffffffffffffffffffffff1673ffffffffffffffffffffffffffffffffffffffff168152602001908152602001600020600082825461197e9190612659565b925050819055505b5b50505050565b50505050565b60006119b48473ffffffffffffffffffffffffffffffffffffffff16611d48565b15611b1d578373ffffffffffffffffffffffffffffffffffffffff1663150b7a026119dd61111a565b8786866040518563ffffffff1660e01b81526004016119ff9493929190612f86565b602060405180830381600087803b158015611a1957600080fd5b505af1925050508015611a4a57506040513d601f19601f82011682018060405250810190611a479190612fe7565b60015b611acd573d8060008114611a7a576040519150601f19603f3d011682016040523d82523d6000602084013e611a7f565b606091505b50600081511415611ac5576040517f08c379a0000000000000000000000000000000000000000000000000000000008152600401611abc90612edd565b60405180910390fd5b805181602001fd5b63150b7a0260e01b7bffffffffffffffffffffffffffffffffffffffffffffffffffffffff1916817bffffffffffffffffffffffffffffffffffffffffffffffffffffffff191614915050611b22565b600190505b949350505050565b600073ffffffffffffffffffffffffffffffffffffffff168273ffffffffffffffffffffffffffffffffffffffff161415611b9a576040517f08c379a0000000000000000000000000000000000000000000000000000000008152600401611b9190613060565b60405180910390fd5b611ba38161178e565b15611be3576040517f08c379a0000000000000000000000000000000000000000000000000000000008152600401611bda906130cc565b60405180910390fd5b611bf1600083836001611867565b611bfa8161178e565b15611c3a576040517f08c379a0000000000000000000000000000000000000000000000000000000008152600401611c31906130cc565b60405180910390fd5b6001600360008473ffffffffffffffffffffffffffffffffffffffff1673ffffffffffffffffffffffffffffffffffffffff16815260200190815260200160002060008282540192505081905550816002600083815260200190815260200160002060006101000a81548173ffffffffffffffffffffffffffffffffffffffff021916908373ffffffffffffffffffffffffffffffffffffffff160217905550808273ffffffffffffffffffffffffffffffffffffffff16600073ffffffffffffffffffffffffffffffffffffffff167fddf252ad1be2c89b69c2b068fc378daa952ba7f163c4a11628f55a4df523b3ef60405160405180910390a4611d4460008383600161198d565b5050565b6000808273ffffffffffffffffffffffffffffffffffffffff163b119050919050565b6000604051905090565b600080fd5b600080fd5b60007fffffffff0000000000000000000000000000000000000000000000000000000082169050919050565b611db481611d7f565b8114611dbf57600080fd5b50565b600081359050611dd181611dab565b92915050565b600060208284031215611ded57611dec611d75565b5b6000611dfb84828501611dc2565b91505092915050565b60008115159050919050565b611e1981611e04565b82525050565b6000602082019050611e346000830184611e10565b92915050565b600081519050919050565b600082825260208201905092915050565b60005b83811015611e74578082015181840152602081019050611e59565b83811115611e83576000848401525b50505050565b6000601f19601f8301169050919050565b6000611ea582611e3a565b611eaf8185611e45565b9350611ebf818560208601611e56565b611ec881611e89565b840191505092915050565b60006020820190508181036000830152611eed8184611e9a565b905092915050565b6000819050919050565b611f0881611ef5565b8114611f1357600080fd5b50565b600081359050611f2581611eff565b92915050565b600060208284031215611f4157611f40611d75565b5b6000611f4f84828501611f16565b91505092915050565b600073ffffffffffffffffffffffffffffffffffffffff82169050919050565b6000611f8382611f58565b9050919050565b611f9381611f78565b82525050565b6000602082019050611fae6000830184611f8a565b92915050565b611fbd81611f78565b8114611fc857600080fd5b50565b600081359050611fda81611fb4565b92915050565b60008060408385031215611ff757611ff6611d75565b5b600061200585828601611fcb565b925050602061201685828601611f16565b9150509250929050565b6000819050919050565b61203381612020565b811461203e57600080fd5b50565b6000813590506120508161202a565b92915050565b60006020828403121561206c5761206b611d75565b5b600061207a84828501612041565b91505092915050565b60008060006060848603121561209c5761209b611d75565b5b60006120aa86828701611fcb565b93505060206120bb86828701611fcb565b92505060406120cc86828701611f16565b9150509250925092565b600080fd5b600080fd5b7f4e487b7100000000000000000000000000000000000000000000000000000000600052604160045260246000fd5b61211882611e89565b810181811067ffffffffffffffff82111715612137576121366120e0565b5b80604052505050565b600061214a611d6b565b9050612156828261210f565b919050565b600067ffffffffffffffff821115612176576121756120e0565b5b61217f82611e89565b9050602081019050919050565b82818337600083830152505050565b60006121ae6121a98461215b565b612140565b9050828152602081018484840111156121ca576121c96120db565b5b6121d584828561218c565b509392505050565b600082601f8301126121f2576121f16120d6565b5b813561220284826020860161219b565b91505092915050565b60006020828403121561222157612220611d75565b5b600082013567ffffffffffffffff81111561223f5761223e611d7a565b5b61224b848285016121dd565b91505092915050565b61225d81611ef5565b82525050565b60006020820190506122786000830184612254565b92915050565b60006020828403121561229457612293611d75565b5b60006122a284828501611fcb565b91505092915050565b6122b481611e04565b81146122bf57600080fd5b50565b6000813590506122d1816122ab565b92915050565b600080604083850312156122ee576122ed611d75565b5b60006122fc85828601611fcb565b925050602061230d858286016122c2565b9150509250929050565b600067ffffffffffffffff821115612332576123316120e0565b5b61233b82611e89565b9050602081019050919050565b600061235b61235684612317565b612140565b905082815260208101848484011115612377576123766120db565b5b61238284828561218c565b509392505050565b600082601f83011261239f5761239e6120d6565b5b81356123af848260208601612348565b91505092915050565b600080600080608085870312156123d2576123d1611d75565b5b60006123e087828801611fcb565b94505060206123f187828801611fcb565b935050604061240287828801611f16565b925050606085013567ffffffffffffffff81111561242357612422611d7a565b5b61242f8782880161238a565b91505092959194509250565b61244481612020565b82525050565b600060208201905061245f600083018461243b565b92915050565b6000806040838503121561247c5761247b611d75565b5b600061248a85828601611fcb565b925050602061249b85828601611fcb565b9150509250929050565b7f4e487b7100000000000000000000000000000000000000000000000000000000600052602260045260246000fd5b600060028204905060018216806124ec57607f821691505b60208210811415612500576124ff6124a5565b5b50919050565b7f4552433732313a20617070726f76616c20746f2063757272656e74206f776e6560008201527f7200000000000000000000000000000000000000000000000000000000000000602082015250565b6000612562602183611e45565b915061256d82612506565b604082019050919050565b6000602082019050818103600083015261259181612555565b9050919050565b7f4552433732313a20617070726f76652063616c6c6572206973206e6f7420746f60008201527f6b656e206f776e6572206f7220617070726f76656420666f7220616c6c000000602082015250565b60006125f4603d83611e45565b91506125ff82612598565b604082019050919050565b60006020820190508181036000830152612623816125e7565b9050919050565b7f4e487b7100000000000000000000000000000000000000000000000000000000600052601160045260246000fd5b600061266482611ef5565b915061266f83611ef5565b9250827fffffffffffffffffffffffffffffffffffffffffffffffffffffffffffffffff038211156126a4576126a361262a565b5b828201905092915050565b7f4552433732313a2063616c6c6572206973206e6f7420746f6b656e206f776e6560008201527f72206f7220617070726f76656400000000000000000000000000000000000000602082015250565b600061270b602d83611e45565b9150612716826126af565b604082019050919050565b6000602082019050818103600083015261273a816126fe565b9050919050565b600081905092915050565b600061275782611e3a565b6127618185612741565b9350612771818560208601611e56565b80840191505092915050565b6000612789828461274c565b915081905092915050565b60006127a0828561274c565b91506127ac828461274c565b91508190509392505050565b7f4552433732313a20696e76616c696420746f6b656e2049440000000000000000600082015250565b60006127ee601883611e45565b91506127f9826127b8565b602082019050919050565b6000602082019050818103600083015261281d816127e1565b9050919050565b7f4552433732313a2061646472657373207a65726f206973206e6f74206120766160008201527f6c6964206f776e65720000000000000000000000000000000000000000000000602082015250565b6000612880602983611e45565b915061288b82612824565b604082019050919050565b600060208201905081810360008301526128af81612873565b9050919050565b7f55524920517565727920666f72206e6f6e6578697374656e7420746f6b656e00600082015250565b60006128ec601f83611e45565b91506128f7826128b6565b602082019050919050565b6000602082019050818103600083015261291b816128df565b9050919050565b600069ffffffffffffffffffff82169050919050565b61294181612922565b811461294c57600080fd5b50565b60008151905061295e81612938565b92915050565b6000815190506129738161202a565b92915050565b60008151905061298881611eff565b92915050565b600080600080600060a086880312156129aa576129a9611d75565b5b60006129b88882890161294f565b95505060206129c988828901612964565b94505060406129da88828901612979565b93505060606129eb88828901612979565b92505060806129fc8882890161294f565b9150509295509295909350565b7f7b226e616d65223a220000000000000000000000000000000000000000000000600082015250565b6000612a3f600983612741565b9150612a4a82612a09565b600982019050919050565b7f222c20226465736372697074696f6e223a22416e204e4654207468617420636860008201527f616e676573206261736564206f6e2074686520436861696e6c696e6b2046656560208201527f64222c2000000000000000000000000000000000000000000000000000000000604082015250565b6000612ad7604483612741565b9150612ae282612a55565b604482019050919050565b7f2261747472696275746573223a205b7b2274726169745f74797065223a20226360008201527f6f6f6c6e657373222c202276616c7565223a203130307d5d2c2022696d61676560208201527f223a220000000000000000000000000000000000000000000000000000000000604082015250565b6000612b6f604383612741565b9150612b7a82612aed565b604382019050919050565b7f227d000000000000000000000000000000000000000000000000000000000000600082015250565b6000612bbb600283612741565b9150612bc682612b85565b600282019050919050565b6000612bdc82612a32565b9150612be8828561274c565b9150612bf382612aca565b9150612bfe82612b62565b9150612c0a828461274c565b9150612c1582612bae565b91508190509392505050565b7f4e487b7100000000000000000000000000000000000000000000000000000000600052601260045260246000fd5b6000612c5b82611ef5565b9150612c6683611ef5565b925082612c7657612c75612c21565b5b828204905092915050565b6000612c8c82611ef5565b9150612c9783611ef5565b9250817fffffffffffffffffffffffffffffffffffffffffffffffffffffffffffffffff0483118215151615612cd057612ccf61262a565b5b828202905092915050565b7f4552433732313a207472616e736665722066726f6d20696e636f72726563742060008201527f6f776e6572000000000000000000000000000000000000000000000000000000602082015250565b6000612d37602583611e45565b9150612d4282612cdb565b604082019050919050565b60006020820190508181036000830152612d6681612d2a565b9050919050565b7f4552433732313a207472616e7366657220746f20746865207a65726f2061646460008201527f7265737300000000000000000000000000000000000000000000000000000000602082015250565b6000612dc9602483611e45565b9150612dd482612d6d565b604082019050919050565b60006020820190508181036000830152612df881612dbc565b9050919050565b7f4552433732313a20617070726f766520746f2063616c6c657200000000000000600082015250565b6000612e35601983611e45565b9150612e4082612dff565b602082019050919050565b60006020820190508181036000830152612e6481612e28565b9050919050565b7f4552433732313a207472616e7366657220746f206e6f6e20455243373231526560008201527f63656976657220696d706c656d656e7465720000000000000000000000000000602082015250565b6000612ec7603283611e45565b9150612ed282612e6b565b604082019050919050565b60006020820190508181036000830152612ef681612eba565b9050919050565b6000612f0882611ef5565b9150612f1383611ef5565b925082821015612f2657612f2561262a565b5b828203905092915050565b600081519050919050565b600082825260208201905092915050565b6000612f5882612f31565b612f628185612f3c565b9350612f72818560208601611e56565b612f7b81611e89565b840191505092915050565b6000608082019050612f9b6000830187611f8a565b612fa86020830186611f8a565b612fb56040830185612254565b8181036060830152612fc78184612f4d565b905095945050505050565b600081519050612fe181611dab565b92915050565b600060208284031215612ffd57612ffc611d75565b5b600061300b84828501612fd2565b91505092915050565b7f4552433732313a206d696e7420746f20746865207a65726f2061646472657373600082015250565b600061304a602083611e45565b915061305582613014565b602082019050919050565b600060208201905081810360008301526130798161303d565b9050919050565b7f4552433732313a20746f6b656e20616c7265616479206d696e74656400000000600082015250565b60006130b6601c83611e45565b91506130c182613080565b602082019050919050565b600060208201905081810360008301526130e5816130a9565b905091905056fe4142434445464748494a4b4c4d4e4f505152535455565758595a6162636465666768696a6b6c6d6e6f707172737475767778797a303132333435363738392b2fa26469706673582212208f3c1b5c1cf104e913a270b74991d6f71018ac5f3b9dfa65229bcaeb355ce5f864736f6c634300080900334142434445464748494a4b4c4d4e4f505152535455565758595a6162636465666768696a6b6c6d6e6f707172737475767778797a303132333435363738392b2f",
  "devdoc": {
    "kind": "dev",
    "methods": {
      "approve(address,uint256)": {
        "details": "See {IERC721-approve}."
      },
      "balanceOf(address)": {
        "details": "See {IERC721-balanceOf}."
      },
      "getApproved(uint256)": {
        "details": "See {IERC721-getApproved}."
      },
      "isApprovedForAll(address,address)": {
        "details": "See {IERC721-isApprovedForAll}."
      },
      "name()": {
        "details": "See {IERC721Metadata-name}."
      },
      "ownerOf(uint256)": {
        "details": "See {IERC721-ownerOf}."
      },
      "safeTransferFrom(address,address,uint256)": {
        "details": "See {IERC721-safeTransferFrom}."
      },
      "safeTransferFrom(address,address,uint256,bytes)": {
        "details": "See {IERC721-safeTransferFrom}."
      },
      "setApprovalForAll(address,bool)": {
        "details": "See {IERC721-setApprovalForAll}."
      },
      "supportsInterface(bytes4)": {
        "details": "See {IERC165-supportsInterface}."
      },
      "symbol()": {
        "details": "See {IERC721Metadata-symbol}."
      },
      "tokenURI(uint256)": {
        "details": "See {IERC721Metadata-tokenURI}."
      },
      "transferFrom(address,address,uint256)": {
        "details": "See {IERC721-transferFrom}."
      }
    },
    "version": 1
  },
  "userdoc": {
    "kind": "user",
    "methods": {},
    "version": 1
  },
  "storageLayout": {
    "storage": [
      {
        "astId": 1203,
        "contract": "contracts/DynamicSvgNft.sol:DynamicSvgNft",
        "label": "_name",
        "offset": 0,
        "slot": "0",
        "type": "t_string_storage"
      },
      {
        "astId": 1205,
        "contract": "contracts/DynamicSvgNft.sol:DynamicSvgNft",
        "label": "_symbol",
        "offset": 0,
        "slot": "1",
        "type": "t_string_storage"
      },
      {
        "astId": 1209,
        "contract": "contracts/DynamicSvgNft.sol:DynamicSvgNft",
        "label": "_owners",
        "offset": 0,
        "slot": "2",
        "type": "t_mapping(t_uint256,t_address)"
      },
      {
        "astId": 1213,
        "contract": "contracts/DynamicSvgNft.sol:DynamicSvgNft",
        "label": "_balances",
        "offset": 0,
        "slot": "3",
        "type": "t_mapping(t_address,t_uint256)"
      },
      {
        "astId": 1217,
        "contract": "contracts/DynamicSvgNft.sol:DynamicSvgNft",
        "label": "_tokenApprovals",
        "offset": 0,
        "slot": "4",
        "type": "t_mapping(t_uint256,t_address)"
      },
      {
        "astId": 1223,
        "contract": "contracts/DynamicSvgNft.sol:DynamicSvgNft",
        "label": "_operatorApprovals",
        "offset": 0,
        "slot": "5",
        "type": "t_mapping(t_address,t_mapping(t_address,t_bool))"
      },
      {
        "astId": 4019,
        "contract": "contracts/DynamicSvgNft.sol:DynamicSvgNft",
        "label": "s_tokenCounter",
        "offset": 0,
        "slot": "6",
        "type": "t_uint256"
      },
      {
        "astId": 4021,
        "contract": "contracts/DynamicSvgNft.sol:DynamicSvgNft",
        "label": "i_lowImageUri",
        "offset": 0,
        "slot": "7",
        "type": "t_string_storage"
      },
      {
        "astId": 4023,
        "contract": "contracts/DynamicSvgNft.sol:DynamicSvgNft",
        "label": "i_highImageUri",
        "offset": 0,
        "slot": "8",
        "type": "t_string_storage"
      },
      {
        "astId": 4033,
        "contract": "contracts/DynamicSvgNft.sol:DynamicSvgNft",
        "label": "s_tokenIdToHighValue",
        "offset": 0,
        "slot": "9",
        "type": "t_mapping(t_uint256,t_int256)"
      }
    ],
    "types": {
      "t_address": {
        "encoding": "inplace",
        "label": "address",
        "numberOfBytes": "20"
      },
      "t_bool": {
        "encoding": "inplace",
        "label": "bool",
        "numberOfBytes": "1"
      },
      "t_int256": {
        "encoding": "inplace",
        "label": "int256",
        "numberOfBytes": "32"
      },
      "t_mapping(t_address,t_bool)": {
        "encoding": "mapping",
        "key": "t_address",
        "label": "mapping(address => bool)",
        "numberOfBytes": "32",
        "value": "t_bool"
      },
      "t_mapping(t_address,t_mapping(t_address,t_bool))": {
        "encoding": "mapping",
        "key": "t_address",
        "label": "mapping(address => mapping(address => bool))",
        "numberOfBytes": "32",
        "value": "t_mapping(t_address,t_bool)"
      },
      "t_mapping(t_address,t_uint256)": {
        "encoding": "mapping",
        "key": "t_address",
        "label": "mapping(address => uint256)",
        "numberOfBytes": "32",
        "value": "t_uint256"
      },
      "t_mapping(t_uint256,t_address)": {
        "encoding": "mapping",
        "key": "t_uint256",
        "label": "mapping(uint256 => address)",
        "numberOfBytes": "32",
        "value": "t_address"
      },
      "t_mapping(t_uint256,t_int256)": {
        "encoding": "mapping",
        "key": "t_uint256",
        "label": "mapping(uint256 => int256)",
        "numberOfBytes": "32",
        "value": "t_int256"
      },
      "t_string_storage": {
        "encoding": "bytes",
        "label": "string",
        "numberOfBytes": "32"
      },
      "t_uint256": {
        "encoding": "inplace",
        "label": "uint256",
        "numberOfBytes": "32"
      }
    }
  }
}